:020000040800F2
:10000000C0060020DD010008E50A0008B709000865
:10001000E10A000891050008F7110008000000003F
:10002000000000000000000000000000710C00084B
:100030009505000800000000590B00085D0D000840
:10004000F7010008F7010008F7010008F7010008B0
:10005000F7010008F7010008F7010008F7010008A0
:10006000F7010008B5050008F7010008F7010008CE
:10007000F7010008F7010008F7010008F701000880
:10008000F7010008F7010008F7010008F701000870
:10009000F7010008F7010008F7010008F701000860
:1000A000F7010008F7010008F7010008F701000850
:1000B000C10D0008F7010008F7010008F70100086A
:1000C000F7010008F7010008F7010008F701000830
:1000D000F701000805100008F7010008F701000803
:1000E000F7010008F7010008F7010008F701000810
:1000F000F7010008F7010008F7010008F701000800
:10010000F7010008F7010008F7010008F7010008EF
:10011000F7010008F7010008F7010008F7010008DF
:10012000F7010008F7010008F7010008F7010008CF
:1001300000F002F800F042F80AA090E8000C8244B7
:100140008344AAF10107DA4501D100F037F8AFF294
:10015000090EBAE80F0013F0010F18BFFB1A43F0A5
:1001600001031847C0110000E0110000103A24BF3D
:1001700078C878C1FAD8520724BF30C830C144BF0C
:1001800004680C607047000000230024002500264E
:10019000103A28BF78C1FBD8520728BF30C148BFEA
:1001A0000B607047642900F0A580732900F08D81F1
:1001B000002070471FB51FBD10B510BD00F0B8F985
:1001C0001146FFF7F7FF01F083F800F0D6F903B40A
:1001D000FFF7F2FF03BC01F067F800000948804711
:1001E00009480047FEE7FEE7FEE7FEE7FEE7FEE719
:1001F000FEE7FEE7FEE7FEE704480549054A064B31
:1002000070470000610D000831010008C0000020A7
:10021000C0060020C0020020C0020020704700007D
:100220000FB4044910B503AA029800F053F910BCAA
:100230005DF814FB400000202DE9F0410E46044615
:10024000002020622046E168884730B3252805D089
:10025000D4E901219047206A401CF2E7E16820467A
:1002600000278847050018D0A5F14100192802D8B9
:1002700020354FF400673246294620462760FFF7B5
:1002800091FF40B1012804D0F61D26F0070608367C
:10029000D8E7361DD6E72846DAE7206ABDE8F081C0
:1002A00070B50C460546012A05D02878800600D591
:1002B000EA69002302E0012305E05B1C934202D2BD
:1002C000E05C0028F9D1A869E618C01AA861286A7C
:1002D000184428622846AFF3008004E0D5E90121E4
:1002E00014F8010B9047B442F8D32846AFF30080CE
:1002F00070BD00002DE9F041064600241068752904
:10030000314616A510D0AFF30080002802DA404233
:1003100013A507E031688A0701D512A502E0490755
:1003200004D511A5012401E0AFF3008000210A22C9
:1003300006F1240709E0B0FBF2FCB0FBF2F302FB8C
:100340001C00303078541846491C0028F3D123464D
:100350002A463046BDE8F04100F04CB800000000ED
:100360002D0000002B000000200000004FF0013C99
:1003700050F8042B51F8043B9A4221D1A2EB0C0314
:10038000934313EACC1317D150F8042B51F8043BD4
:100390009A4215D1A2EB0C03934313EACC130BD171
:1003A00050F8042B51F8043B9A4209D1A2EB0C03FC
:1003B000934313EACC13DBD04FF00000704700BF2B
:1003C000D01A01BAB1FA81F101F0180122FA01F054
:1003D000CB40C1F12001DBB2C0B2C01A2CFA01F34C
:1003E000D11A914311EAC311E6D1704770477047A3
:1003F000704770472DE9F0470D46994692460446EE
:1004000000F124080168880604D5E06921F0100194
:10041000216000E00120A84201DD471B00E0002729
:10042000A1697A1902EB0900081AA0612078C006B8
:1004300002D42046AFF30080002608E0D4E9012171
:100440001AF806009047206A401C761C20624E4530
:10045000F4DB2078C0060AD52046AFF3008006E022
:10046000D4E9012130209047206A401C2062381EC8
:10047000A7F10107F4DC07E0D4E9012118F8050031
:100480009047206A401C2062281EA5F10105F3DC7C
:100490002046AFF300802078000602D50220BDE898
:1004A000F0870120FBE710B5436913B1AFF300807B
:1004B00001E0FFF7F5FE012010BD127800F12401E4
:1004C0000A7000224A700122EDE711684FF0FF32F6
:1004D000E9E70000074B70B50D467B4400F011F8CA
:1004E0000446284600F020F810B14FF0FF3070BDF0
:1004F000204670BDCF0D000001694A1C02610878DA
:10050000704700B58FB0CDE9013100210591054953
:100510007944CDE9031011466846FFF78DFE0FB010
:1005200000BD0000E5FFFFFF007B00F0800070478A
:10053000754600F029F8AE4605006946534620F09E
:100540000700854618B020B5FFF756FEBDE82040ED
:100550004FF000064FF000074FF000084FF0000B7F
:1005600021F00701AC46ACE8C009ACE8C009ACE832
:10057000C009ACE8C0098D4670470446AFF300805F
:100580002046FFF724FE0000004870475C00002072
:1005900000BFFEE7704708B50021009103E000BFEF
:1005A0000099491C00914FF4FA514143009A91423D
:1005B000F5D808BD10B50A20FFF7EDFF082000F0C0
:1005C000EDF800283CD01F4800681F4909688842A0
:1005D00029D11C48006820B101280DD0022821D162
:1005E00015E01A481A4A126850F822101948026891
:1005F00019A0FFF715FE15E01448154A126850F8C7
:1006000022101448026822A0FFF70AFE0AE00F48F1
:100610000F4A126850F822100E4802682AA0FFF70D
:10062000FFFD00BF09E00948094A126850F822108E
:100630000848026832A0FFF7F3FD082000F080F8B8
:1006400010BD00003C0000204400002024000020D9
:1006500034000020300000204C696768743A20257F
:10066000732C2052656D61696E696E672054696DE7
:10067000653A202564207365636F6E6473203E3E87
:10068000D5FDB3A3B3B5C1F7C1BF3C3C0D0A000013
:100690004C696768743A2025732C2052656D616936
:1006A0006E696E672054696D653A20256420736514
:1006B000636F6E6473203E3ED3B5B6C2CAB1BCE46C
:1006C000B6CE3C3C0D0A00004C696768743A2025A0
:1006D000732C2052656D61696E696E672054696D77
:1006E000653A202564207365636F6E6473203E3E17
:1006F000CFA1CAE8CAB1BCE4B6CE3C3C0D0A0000AA
:100700004C696768743A2025732C2052656D6169C5
:100710006E696E672054696D653A202564207365A3
:10072000636F6E6473203E3ED5FDD4DAD0DEB8C46C
:10073000BAECC2CCB5C6D1D5C9AB3C3C0D0A000061
:100740000149086070470000140401400EB5012102
:10075000084600F013FA0321042000F07DF8092078
:100760008DF8080002208DF8090000208DF80A009D
:1007700001208DF80B0002A800F0B6F908200090C7
:1007800001208DF8060000208DF804000C208DF863
:100790000500684600F016F80EBD00000146002076
:1007A0000022074B1B6803EA0102054B14331B6848
:1007B0000B4013B10AB1012000E000207047000097
:1007C00000040140002123498279002A3AD00A46D8
:1007D000126803689A430B461A600A1D1268036880
:1007E0009A430B1D1A60027911440A6803681A4380
:1007F0000A60184A0832126803689A43154B083396
:100800001A601A1D126803689A43124B0C331A605F
:100810004279102A0ED11A1F126803681A430D4B31
:1008200008331A601A1D126803681A43094B0C3307
:100830001A600DE00749427911440A6803681A43B7
:100840000A6005E0027911440A6803689A430A6065
:10085000704700000004014030B500228B071C0FD8
:100860000F2303FA04F20B4B8C1053F824309343FC
:10087000084C8D1044F8253023468C1053F8243052
:100880008C07240F00FA04F42343024C8D1044F823
:10089000253030BD080001402DE9F0410246002519
:1008A0000026002000230024002791F803C00CF04C
:1008B0000F0591F803C00CF0100CBCF1000F03D031
:1008C00091F802C04CEA050591F800C0BCF1000F98
:1008D00031D0146800202BE04FF0010C0CFA00F32B
:1008E000B1F800C00CEA03069E4220D183004FF00D
:1008F0000F0C0CFA03F7BC4305FA03FC4CEA0404A2
:1009000091F803C0BCF1280F06D14FF0010C0CFA8E
:1009100000FCC2F814C00AE091F803C0BCF1480F13
:1009200005D14FF0010C0CFA00FCC2F810C0401CBD
:100930000828D1D31460B1F800C0BCF1FF0F34DD3A
:10094000546800202EE000F1080C4FF0010808FA6E
:100950000CF3B1F800C00CEA03069E4221D18300DB
:100960004FF00F0C0CFA03F7BC4305FA03FC4CEAFA
:10097000040491F803C0BCF1280F05D100F1080C64
:1009800008FA0CF8C2F8148091F803C0BCF1480FC3
:1009900007D100F1080C4FF0010808FA0CF8C2F872
:1009A0001080401C0828CED35460BDE8F08141611E
:1009B00070470161704700BFFEE7000008B50121E4
:1009C000402000F0DBF80820ADF8000003208DF88F
:1009D000020048208DF8030069460A48FFF75CFFD3
:1009E0001020ADF8000069460648FFF755FF0120CA
:1009F000ADF8000028208DF8030069460248FFF793
:100A00004BFF08BD001801400008014008B5012156
:100A1000402000F0B3F80121082000F0AFF82020BA
:100A2000ADF8000003208DF8020010208DF80300BF
:100A300069460748FFF730FF2020ADF8000010207E
:100A40008DF8030069460348FFF726FF08BD000044
:100A5000000C01400018014010B5044609A12046D1
:100A6000FFF784FC18B920210848FFF7A2FF08A16E
:100A70002046FFF77BFC18B920210748FFF799FFB4
:100A800010BD00004C45443000000000000C014047
:100A90004C454431000000000018014010B50446E8
:100AA00009A12046FFF762FC18B920210848FFF78A
:100AB0007EFF08A12046FFF759FC18B920210748FE
:100AC000FFF775FF10BD00004C45443000000000EA
:100AD000000C01404C45443100000000001801406A
:100AE00000BFFEE77047000070B5002100230F2211
:100AF000C47804B3154C246804F4E064C4F5E064DD
:100B0000210AC1F10403CA40447804FA03F184784D
:100B10001440214309010E4C0678A155047804F0D5
:100B20001F050124AC4005786D11AD0005F1E025ED
:100B3000C5F8004109E0047804F01F050124AC4029
:100B4000044D0678761145F8264070BD0CED00E0A6
:100B500000E400E080E100E07047000029B1064AAF
:100B6000D2690243044BDA6104E0034AD26982434A
:100B7000014BDA61704700000010024029B1064ABB
:100B800092690243044B9A6104E0034A92698243EA
:100B9000014B9A61704700000010024030B50021FF
:100BA0000022002400232D4D6D6805F00C0121B1B9
:100BB000042905D0082923D105E0294D056022E04C
:100BC000274D05601FE0254D6D6805F47012234D1B
:100BD0006D6805F48034022505EB92421CB9214D65
:100BE000554305600BE01D4D6D6805F400351DB1E2
:100BF0001C4D5543056002E0194D5543056002E068
:100C0000174D056000BF00BF144D6D6805F0F00181
:100C10000909154D6B5C0568DD4045600F4D6D6839
:100C200005F4E061090A104D6B5C4568DD408560A4
:100C30000A4D6D6805F46051C90A0B4D6B5C45683F
:100C4000DD40C560054D6D6805F44041890B074DD9
:100C50006B5CC568B5FBF3F5056130BD0010024063
:100C600000127A0000093D004800002058000020D2
:100C7000704710B500F002F810BD00000CB5002060
:100C8000019000903348006840F48030314908609A
:100C900000BF3048006800F4003000900198401C0C
:100CA0000190009818B90198B0F5A06FF1D12948CA
:100CB000006800F4003010B10120009001E0002035
:100CC00000900098012843D12348006840F01000AC
:100CD000214908600846006820F0030008600846C3
:100CE000006840F0020008601A48406819494860EE
:100CF0000846406848600846406840F480604860A4
:100D00000846406820F47C1048600846406840F47B
:100D1000E81048600846006840F08070086000BF36
:100D20000C48006800F000700028F9D009484068BD
:100D300020F00300074948600846406840F0020080
:100D4000486000BF0348406800F00C000828F9D153
:100D50000CBD00000010024000200240704700005F
:100D600010B51348006840F00100114908600846BA
:100D70004068104908400E494860084600680E491E
:100D800008400B4908600846006820F4802008608D
:100D90000846406820F4FE0048604FF41F00886059
:100DA000FFF767FF4FF000600449086010BD0000C6
:100DB000001002400000FFF8FFFFF6FE08ED00E023
:100DC00010B50121880700F080F8002859D00121D2
:100DD000880700F06BF82B480068002804DD2948DC
:100DE0000068401E274908602748006830B927A0DE
:100DF000FFF754FE27A0FFF72FFE23E022480068EC
:100E0000012815D12548006818B920A0FFF724FE55
:100E100002E01EA0FFF742FE2048006808B901204A
:100E200000E000201D4908601AA0FFF715FE09E048
:100E300015480068022805D114A0FFF70DFE15A083
:100E4000FFF72CFE0F480068D8B90F480068401C17
:100E50000D49086008460068032805DB002008608B
:100E60000F4800680F4908600E48006800EB40001A
:100E70000D4901EB80000449096850F8210001493F
:100E8000086010BD30000020340000204C45443084
:100E9000000000004C4544310000000038000020F4
:100EA000440000203C00002000000020CA430282D1
:100EB000704721B1028842F00102028004E00288FA
:100EC0004FF6FE731A400280704730B5024600208C
:100ED00000230024158A05EA0103958905EA010427
:100EE00013B10CB1012000E0002030BD1AB183899C
:100EF0000B43838102E083898B4383817047000029
:100F0000002202881D4B98420ED01D4B98420BD0F8
:100F1000B0F1804F08D01B4B984205D01A4B984235
:100F200002D01A4B984204D14FF68F731A404B8867
:100F30001A43174B984207D0164B984204D04FF6ED
:100F4000FF431A40CB881A4302808B8883850B8825
:100F500003850A4B98420BD0094B984208D00E4BA0
:100F6000984205D00D4B984202D00D4B984201D1CA
:100F70000B7A03860123838270470000002C014016
:100F8000003401400004004000080040000C004014
:100F900000100040001400400040014000440140A7
:100FA000004801401FB501210846FFF7D7FD42F276
:100FB0000F70ADF8080041F61F40ADF804000020A6
:100FC000ADF80A00ADF8060001A94FF08040FFF728
:100FD00097FF012211469007FFF788FF1C208DF82C
:100FE000000001208DF8010000208DF80200012092
:100FF0008DF803006846FFF777FD01218807FFF7AA
:1010000058FF1FBD10B540F225510A4800F02FF8D7
:1010100078B1084800F0E6F8C4B2312C03D10120C1
:101020000549086004E0322C02D102200249086020
:1010300000BF10BD003801404400002021B182896A
:1010400042F40052828104E082894DF6FF731A4017
:101050008281704702460020B1F5007F00D100BFB9
:1010600013880B400BB1012000E00020704770B5E1
:101070000246002400230025002040F66A16B142F3
:1010800000D100BFC1F3421501F01F03012606FA8B
:1010900003F3012D02D19689334006E0022D02D1DF
:1010A000168A334001E0968A33400C12012606FA74
:1010B00004F41688344013B10CB1012000E0002084
:1010C00070BDF0B50346002400260025002040F640
:1010D0006A17B94200D100BF1846C1F3421401F0AB
:1010E0001F06012707FA06F5012C01D10C3004E098
:1010F000022C01D1103000E014301AB107682F43E0
:10110000076002E00768AF430760F0BD2DE9F047D4
:1011100086B005460E460024A24600BFA146002721
:10112000B08900B100BF2F462C8A4CF6FF700440F6
:10113000F08804432C82AC894EF6F3100440B0884A
:1011400031890843718908430443AC81AC8A4FF666
:10115000FF400440B0890443AC8201A8FFF71EFDA4
:101160001F48874202D1DDF810A001E0DDF80CA095
:10117000A88900F4004040B10AEBCA0000EB0A1055
:1011800031684900B0FBF1F807E00AEBCA0000EB58
:101190000A1031688900B0FBF1F86420B8FBF0F068
:1011A00004012009642101FB1089A88900F4004092
:1011B00040B1322000EBC900B0FBF1F000F00700B5
:1011C000044308E0322000EB09106421B0FBF1F089
:1011D00000F00F0004432C8106B0BDE8F08700004A
:1011E0000038014001468888C0F308007047C1F309
:1011F00008028280704700BFFEE7000000B587B09C
:1012000001218803FFF7BAFC01210420FFF7B6FC97
:101210004FF40070ADF8180001208DF81A00182066
:101220008DF81B0006A91E48FFF736FB4FF48060BF
:10123000ADF8180004208DF81B0006A91848FFF728
:101240002BFB4FF4E13002900020ADF814000C208D
:10125000ADF812000020ADF81000ADF80E00ADF8AA
:101260000C0002A90F48FFF751FF01210D48FFF7BD
:10127000E5FE25208DF8040001208DF807000020F0
:101280008DF8050001208DF8060001A8FFF72CFC61
:10129000012240F225510348FFF713FF07B000BDBC
:1012A000000801400038014000BF704770B5044697
:1012B0000D46E1B20548FFF79AFF00BF80210348C1
:1012C000FFF7C8FE0028F9D0204670BD0038014065
:1012D0000A4800680A49086000200A490860FFF7C8
:1012E00095FBFFF78BFFFFF769FBFFF72FFAFFF77F
:1012F00059FE05A0FFF7D2FB00BFFEE7000000206B
:10130000300000203C0000204C454430000000002C
:1013100052656400477265656E00000059656C6C2B
:101320006F77000044130008000000205C000000FC
:101330006C010008A01300085C0000206406000097
:10134000880100080A000000040000000A000000F4
:101350000C0000000400000008000000080000006D
:10136000040000000C000000141300081C13000807
:101370001013000800000000000000000000000042
:10138000000000000000000000000000000000005D
:101390000102030401020304060708090204060807
:0400000508000131BD
:00000001FF
