:020000040800F2
:1000000028B40020D50100082B3B00089106000809
:10001000293B000869040008DD43000800000000D7
:10002000000000000000000000000000CB400008BD
:10003000A104000800000000533D0008B54100087D
:10004000EF010008EF010008EF010008EF010008D0
:10005000EF010008EF010008EF010008EF010008C0
:10006000EF010008EF010008EF010008EF010008B0
:10007000EF010008EF010008EF010008EF010008A0
:10008000EF010008EF010008EF010008EF01000890
:10009000EF010008EF010008EF010008EF01000880
:1000A000EF010008EF010008EF010008EF01000870
:1000B000EF010008EF010008EF010008EF01000860
:1000C000EF010008EF010008EF010008EF01000850
:1000D000EF01000809420008EF010008EF010008E5
:1000E000EF010008EF010008EF010008EF01000830
:1000F000EF010008EF010008EF010008EF01000820
:10010000EF010008EF010008EF010008EF0100080F
:10011000EF010008EF010008EF010008EF010008FF
:10012000EF010008EF010008EF010008EF010008EF
:1001300000F002F800F03FF80AA090E8000C8244BA
:100140008344AAF10107DA4501D100F034F8AFF297
:10015000090EBAE80F0013F0010F18BFFB1A43F0A5
:1001600001031847D8490000F8490000103A24BF9D
:1001700078C878C1FAD8520724BF30C830C144BF0C
:1001800004680C607047000000230024002500264E
:10019000103A28BF78C1FBD8520728BF30C148BFEA
:1001A0000B607047782900F07780002070471FB5FA
:1001B0001FBD10B510BD00F027F91146FFF7F7FF7E
:1001C00004F06CF900F045F903B4FFF7F2FF03BC4B
:1001D00004F005F90948804709480047FEE7FEE7B3
:1001E000FEE7FEE7FEE7FEE7FEE7FEE7FEE7FEE7E7
:1001F00004480549054A064B70470000B94100080C
:100200003101000828AE002028B4002028B00020CA
:1002100028B00020704700000FB4044910B503AAAD
:10022000029800F0C3F810BC5DF814FB3C000020FD
:100230002DE9F0410E460446002020622046E16888
:10024000884730B3252805D0D4E901219047206A9A
:10025000401CF2E7E168204600278847050018D0D7
:10026000A5F14100192802D820354FF40067324625
:10027000294620462760FFF795FF40B1012804D0AA
:10028000F61D26F007060836D8E7361DD6E72846BD
:10029000DAE7206ABDE8F08170B504460D462146D4
:1002A0001068AFF300802188090502D50F4A7A440F
:1002B00002E00E4A7A440E32002104F1240305E0E4
:1002C00000F00F060009965D5E54491C0028F7D126
:1002D00020780023000704D5702D02D009B1022335
:1002E00011322046BDE8704000F006B862480000B8
:1002F00070477047704770472DE9F0470D469946A3
:100300009246044600F124080168880604D5E06995
:1003100021F01001216000E00120A84201DD471B0F
:1003200000E00027A1697A1902EB0900081AA06110
:100330002078C00602D42046AFF30080002608E0F3
:10034000D4E901211AF806009047206A401C761C67
:1003500020624E45F4DB2078C0060AD52046AFF374
:10036000008006E0D4E9012130209047206A401C3B
:100370002062381EA7F10107F4DC07E0D4E901216F
:1003800018F805009047206A401C2062281EA5F13D
:100390000105F3DC2046AFF300802078000602D58B
:1003A0000220BDE8F0870120FBE70000074B70B595
:1003B0000D467B4400F011F80446284600F020F872
:1003C00010B14FF0FF3070BD204670BDCF4000002F
:1003D00001694A1C02610878704700B58FB0CDE909
:1003E00001310021059105497944CDE903101146F9
:1003F0006846FFF71DFF0FB000BD0000E5FFFFFFDF
:10040000007B00F080007047754600F029F8AE468A
:1004100005006946534620F00700854618B020B510
:10042000FFF7E6FEBDE820404FF000064FF0000762
:100430004FF000084FF0000B21F00701AC46ACE88C
:10044000C009ACE8C009ACE8C009ACE8C0098D46F9
:1004500070470446AFF300802046FFF7B5FE00006A
:1004600000487047C8AD0020FEE7000008B5012134
:10047000042003F07BFC4FF48070ADF800000120F5
:100480008DF8020018208DF803006946034800F03B
:100490007DF8062003F0BEFC08BD00000008014006
:1004A000704700008000A0F1C0400029016802D020
:1004B00041F0010101E0024A114001607047000073
:1004C000FEFF0F0010B5D0E901121143D0E903235C
:1004D0001A4311434269114382691143C2691143AE
:1004E000026A1143426A1143826A1143C26A11438C
:1004F000026B114302689200A2F1C0421160816850
:10050000082907D101688900A1F1C0410A6842F0B9
:1005100040020A60416BD1E9002342EA03128B6872
:100520008C891B0243EA04431A430B8A42EA0352B2
:100530000B7D896942EA03620A4301688900A1F1DF
:10054000C0414A60C16AB1F5804F08D000686FF0C1
:1005500070418000A0F1C040C0F8041110BD816B53
:10056000D1E9002342EA03128B680C8A1B0243EA9A
:1005700004531A430B7D896942EA036200680A4307
:100580008000A0F1C040C0F8042110BDF0B5CA78C9
:10059000002502F00F03D20601D58A7813430A78AA
:1005A0004FF00F0E12F0FF0F4FF001021CD0046845
:1005B0000F8802FA05F63740B74211D14FEA850C91
:1005C0000EFA0CF724EA070703FA0CF43C43CF7841
:1005D000282F02D0482F02D002E0466100E00661D9
:1005E0006D1C082DE4D304600C88FF2C1ED94468D0
:1005F0005FF0000606F1080702FA07F50F882F40A2
:10060000AF420FD14FEA860C0EFA0CF7BC4303FA47
:100610000CF73C43CF78282F00D14561CF78482F85
:1006200000D10561761C082EE4D34460F0BD0000C3
:10063000F0B5144C002801DAE36900E06368420D6C
:10064000120185B2C0F301579540C0F30346032F52
:1006500005D0C2020AD50322B240934307E023F03B
:100660007062636823F07063636002E0AB4343F041
:10067000706201B12A43002801DAE261F0BD6260D4
:10068000F0BD00000000014041617047016170470A
:10069000FEE7C0F34511C20AC00200EB411010444E
:1006A00080B270472DE9F043174C81460025208821
:1006B00066884643A088A0F5D041043902D1A079CC
:1006C000012807D00021084603F054F903F0F2F99D
:1006D0000E4814E00020A0712A2767814FF02B08F4
:1006E000A4F80C80014603F045F90120A071A4F89C
:1006F0000A80A781EAE700BFA0F800906D1CB54210
:10070000FAD3BDE8F0830000D40200200008006C9A
:100710002DE9F04F4A492A242B25898845F2105AA1
:100720004FF4305B4FF4285E4FF448764FF0F00CF6
:1007300049F241394FF4A07345F210374FF4F0728B
:1007400080B13F484FF00108494580F8068003809A
:10075000A0F802C001D0B9423ED12C2606814481C6
:10076000858157E036484FF00008494580F80680FB
:10077000A0F800C0438006D0A1F5D04CBCF1040C19
:1007800001D0B9420CD12C2606814481A1F5D04478
:100790008581043C01D0B94244D10380428041E0CC
:1007A000514507D1A0F808B0A0F80AE04FF42C5149
:1007B00081810EE0A1F5C853633B06D0222101815F
:1007C00020214181212181812CE02C210181458141
:1007D00084810280468025E0A1F5D04CBCF1040C58
:1007E00009D051450BD1A0F808B0A0F80AE04FF4A9
:1007F0002C54848121E02C260681458109E0A1F555
:10080000C85CBCF1630C12D02224048121244481F1
:1008100020248481A1F5D044043C01D0B94201D107
:1008200002804380BDE8F04F002002F0CFBF4FF0C0
:100830002C0CA0F808C04481858106804280E9E73D
:10084000D40200202DE9F04F01210E02A1B0304664
:1008500003F080FA01214FF4B47003F087FA012706
:10086000ADF840704FF010088DF8438003258DF8E7
:10087000425010A9FE48FFF789FE4CF23370ADF8E4
:10088000400018248DF843408DF8425010A9F948D3
:10089000FFF77CFE4FF68070ADF840008DF84340C6
:1008A0008DF8425010A9F448FFF770FE41F20100A4
:1008B000ADF840008DF843408DF8425010A9EF4844
:1008C000FFF764FE00200F21CDE91201119714906B
:1008D0001590169017901890CDE9190506211E90D5
:1008E0001B901C90CDE90010CDE902081D900490EA
:1008F0003101CDE908010690059007908900CDE906
:100900000A010C9011A80D9018A80E906846FFF7E8
:10091000D9FD01210620FFF7C5FD322003F07EFD41
:10092000002002F029FFD64DD64C49F24139A8806B
:1009300046F6040A45F2103B45F210574FF6FF7891
:10094000FF2804D3404502D0B0F5134F70D1D32017
:10095000208002F083FEA88002F080FEA88002F0D2
:100960007DFE08EA00204146A88002F077FEAA88B2
:100970001043A88048455BD0BF20208002F06EFE67
:10098000A88002F06BFEA88002F068FEA88002F04A
:1009900065FE01EA0020A88002F060FEAA881043EC
:1009A000A880504544D0D420208002F057FEA88073
:1009B00002F054FEA88002F051FE01EA0020A88057
:1009C00002F04CFEAA881043A880584530D04FF45E
:1009D0005A40208002F042FEA8804FF45B40208005
:1009E00002F03CFE01EA0020A8804FF45C40208029
:1009F00002F034FEAA881043A880B0F5004F7DD0E5
:100A0000B84215D0A120208002F028FEA88002F074
:100A100025FE01EA0020A88002F020FEA9880843F4
:100A2000A0F5AE41A880613902D141F66310A880DB
:100A3000A98895A0FFF7F0FBA888924DAD1C48450A
:100A40007ED1CF20208000202880C1202880302027
:100A50002880ED2020806420288003202880122018
:100A6000288081202880E820208085202880102070
:100A700028807A202880CB202080392028802C20B4
:100A80002880002028803420288002202880F72019
:100A9000208020202880EA202080002028802880B4
:100AA000C02020801B202880C12020800120288099
:100AB000C5202080302028802880C7202080B720B3
:100AC000288036202080482028803A202080552009
:100AD0002880B1202080002028801A202880B6207D
:100AE00020800A202880A2202880F2202080002058
:100AF0002880262020800120288000E051E0E0208E
:100B000020800F2028802A20288028202880082064
:100B100028800E2028800820288054202880A920A2
:100B20002880432028800A2028800F202880002049
:100B30002880288028802880E1202080002000E074
:100B400031E0288015202880172028800720288061
:100B500011202880062028802B20288056202880DD
:100B60003C20288005202880102028800F20288005
:100B70003F20288028800F2028802B2020800020E4
:100B800028802880012028803F2028802A2020805B
:100B90000020288028802880EF20288011202080B5
:100BA00084E0AF8044E7504576D1112020801420A6
:100BB00003F034FCD02020800720288042202880A9
:100BC0001D202880D1202080002028801A20288005
:100BD00009202880D22020800120288022202880FF
:100BE000C0202080102028803B20288000202880E2
:100BF0000220288011202880C52020800320288002
:100C0000C8202080002028802520288021202880BE
:100C100005202880002028800A2028806520288040
:100C20002520288077202880502028800F202880A9
:100C300000202880F820208001202880FE202080AD
:100C4000002028800220288020202080362020803C
:100C5000082028803A202080552028802B202080C2
:100C6000002028802880012028803F20288014E050
:100C7000000C014000140140001801400020014018
:100C8000D4020020FE07006C204C43442049443A23
:100C900025780D0A000000000EE02A2020800020A8
:100CA0002880288001202880DF202880782003F0F9
:100CB000B5FB292001F02DBC58457DD1ED202080C9
:100CC00001202880FE202880EE202080DE20288041
:100CD00021202880F120208001202880DF20208012
:100CE00010202880C42020808F202880C6202080CB
:100CF00000202880E220288028802880BF202080B3
:100D0000AA202880B02020800D2028800020288064
:100D10000D20288000202880112028800020288095
:100D20001920288000202880212028800020288069
:100D30002D202880002028803D2028800020288029
:100D40005D202880002028805D20288000202880C9
:100D5000B120208080202880002028808B202880BF
:100D6000002028809620288000202880B220208023
:100D7000002028802880022028800020288003204E
:100D8000288000202880B320208000202880288010
:100D90002880288028802880288028802880288013
:100DA0002880288028802880288028802880288003
:100DB00028802880288000E0FEE328802880288082
:100DC000B42020808B202880002028809620288036
:100DD00000202880A120288000202880B5202080A5
:100DE00002202880002028800320288000202880DE
:100DF0000420288000202880B62020800020288021
:100E00002880B72020800020288028803F2028804C
:100E1000002028805E2028800020288064202880F0
:100E2000002028808C20288000202880AC2028806A
:100E300000202880DC202880002028807020288046
:100E4000002028809020288000202880EB20288007
:100E500000202880DC20288000202880B8202080E6
:100E600000202880288028802880288028802880CA
:100E70002880BA20208024202880002028802880F4
:100E80002880C12020802020288000202880542015
:100E9000288000202880FF20288000202880C22071
:100EA00020800A202880002028800420288000201C
:100EB0002880C32020803C202880002028803A20E1
:100EC0002880002028803920288000202880372092
:100ED0002880002028803C20288000202880362080
:100EE00028800020288032202880002028802F2081
:100EF0002880002028802C2028800020288029207D
:100F00002880002028802620288000202880242077
:100F1000288000202880242028800020288023206A
:100F20002880002028803C2028800020288036202F
:100F300028800020288032202880002028802F2030
:100F40002880002028802C2028800020288029202C
:100F50002880002028802620288000202880242027
:100F6000288000202880242028800020288023201A
:100F7000288000202880C420208062202880002033
:100F800028800520288000202880842028800020B8
:100F90002880F02028800020288018202880002029
:100FA0002880A42028800020288018202880002065
:100FB000288050202880002028800C2028800020B5
:100FC0002880172028800020288095202880002055
:100FD0002880F320288000202880E6202880002018
:100FE0002880C520208032202880002028804420AE
:100FF00028800020288065202880002028807620F6
:101000002880002028808820288000202880C62072
:101010002080202028800020288017202880002081
:1010200028800120288000202880C72020800020E0
:101030002880288028802880C820208000202880C0
:10104000288028802880C9202080002028802880AF
:101050002880288028802880288028802880288050
:10106000288028802880288028802880E0202080F0
:1010700016202880002028801C202880002028801E
:1010800021202880002028803620288000202880E9
:101090004620288000202880522028800020288098
:1010A00064202880002028807A2028800020288042
:1010B0008B202880002028809920288000202880EC
:1010C000A820288000202880B9202880002028809F
:1010D000C420288000202880CA2028800020288062
:1010E000D220288000202880D92028800020288035
:1010F000E020288000202880F320288000202880FD
:10110000E120208016202880002028801C202880B4
:101110000020288022202880002028803620288057
:101120000020288045202880002028805220288008
:101130000020288064202880002028807A202880B1
:10114000002028808B20288000202880992028805B
:1011500000202880A820288000202880B92028800E
:1011600000202880C420288000202880CA202880D1
:1011700000202880D220288000202880D8202880A5
:1011800000202880E020288000202880F32028806C
:1011900000202880E2202080052028800020288050
:1011A0000B202880002028801B20288000202880F9
:1011B0003420288000202880442028800020288097
:1011C0004F2028800020288061202880002028804F
:1011D00079202880002028808820288000202880EE
:1011E0009720288000202880A620288000202880A2
:1011F000B720288000202880C22028800020288056
:10120000C720288000202880D12028800020288026
:10121000D620288000202880DD20288000202880FB
:10122000F320288000202880E320208005202880CB
:10123000002028800A202880002028801C20288068
:101240000020288033202880002028804420288007
:1012500000202880502028800020288062202880BC
:10126000002028807820288000202880882028805E
:10127000002028809720288000202880A620288011
:1012800000202880B720288000202880C2202880C5
:1012900000202880C720288000202880D120288096
:1012A00000202880D520288000202880DD2028806C
:1012B00000202880F320288000202880E42020803F
:1012C00001202880002028800120288000202880FC
:1012D00002202880002028802A20288000202880C2
:1012E0003C202880002028804B2028800020288057
:1012F0005D202880002028807420288000202880FD
:1013000084202880002028809320288000202880A6
:10131000A220288000202880B32028800020288058
:10132000BE20288000202880C4202880002028801B
:10133000CD20288000202880D320288000202880ED
:10134000DD20288000202880F320288000202880AD
:10135000E520208000202880288028802880022006
:1013600028800020288029202880002028803C20F8
:101370002880002028804B202880002028805D20A5
:101380002880002028807420288000202880842045
:101390002880002028809320288000202880A220F8
:1013A000288000202880B320288000202880BE20AC
:1013B000288000202880C420288000202880CD207C
:1013C000288000202880D320288000202880DC204E
:1013D000288000202880F320288000202880E62014
:1013E00020801120288000202880342028800020A0
:1013F0002880562028800020288076202880002001
:1014000028807720288000202880662028800020DF
:10141000288088202880002028809920288000208B
:101420002880BB2028800020288099202880002048
:1014300028806620288000202880552028800020D1
:1014400028805520288000202880452028800020E2
:1014500028804320288000202880442028800020E5
:101460002880E720208032202880002028805520F6
:101470002880002028807620288000202880662070
:10148000288000202880672028800020288067206E
:10149000288000202880872028800020288099200C
:1014A000288000202880BB202880002028809920C8
:1014B0002880002028807720288000202880442051
:1014C0002880002028805620288000202880232083
:1014D0002880002028803320288000202880452074
:1014E000288000202880E820208000202880288074
:1014F00099202880002028808720288000202880AC
:1015000088202880002028807720288000202880BC
:1015100066202880002028808820288000202880BD
:10152000AA20288000202880BB2028800020288036
:10153000992028800020288066202880002028808C
:1015400055202880002028805520288000202880D1
:1015500044202880002028804420288000202880E3
:101560005520288000202880E9202080AA2028807B
:1015700000202880288028802080AA202880CF2052
:1015800020800020288028802880288028802880AB
:10159000288028802880288028802880288028800B
:1015A000288028802880F02020800020288050205B
:1015B00028800020288000E02CE028802880F3206C
:1015C000208000202880F9202080062028801020FC
:1015D000288029202880002028803A20208055203B
:1015E000288011202080642002F018FF292020800C
:1015F000352020800020288051202080FF20288056
:10160000532020802C202880552020808220288074
:101610002C20FCE3B8427DD14FF47043552118468D
:1016200002F052FA4FF20105AA21284602F04CFAC4
:101630006E1C5221304602F047FAAF1C0821384692
:1016400002F042FA4FF204090121484602F03CFA46
:101650000D214FF4304002F037FA0D214BF201001A
:1016600002F032FA0D214BF2020002F02DFA4FF493
:10167000364A3421504602F027FA34214BF20160F9
:1016800002F022FA34214BF2026002F01DFA4FF40C
:10169000314B0D21584602F017FA0D214BF2011083
:1016A00002F012FA0D214BF2021002F00DFA342171
:1016B0004FF4374002F008FA34214BF2017002F087
:1016C00003FA34214BF2027002F0FEF900214FF4CC
:1016D000324002F0F9F900214BF2012002F0F4F956
:1016E00000214BF2022002F0EFF924214FF43840A0
:1016F00002F0EAF924214BF6010002F0E5F9242179
:101700004BF6020002F0E0F901214FF43F4002F0F5
:10171000DBF900E0FEE30F214FF4334002F0D4F98F
:101720000F214BF2013002F0CFF90F214BF20230C2
:1017300002F0CAF934214FF4394002F0C5F93421DE
:101740004BF6011002F0C0F934214BF6021002F002
:10175000BBF908214FF4354002F0B6F908214BF2ED
:10176000015002F0B1F908214BF2025002F0ACF93D
:1017700003214FF4424002F0A7F924214FF43A40EC
:1017800002F0A2F924214BF6012002F09DF9242158
:101790004BF6022002F098F900214FF43C4002F091
:1017A00093F978214BF6014002F08EF900214BF6B7
:1017B000024002F089F900214FF43D4002F084F923
:1017C00078214BF6015002F07FF900214BF60250D0
:1017D00002F07AF900214FF43E4002F075F96421DD
:1017E0004BF6016002F070F900214FF4514002F015
:1017F0006BF933214DF2011002F066F900214DF230
:10180000021002F061F934214DF2031002F05CF98C
:1018100000214DF2041002F057F93A214DF2051063
:1018200002F052F900214DF2061002F04DF94A2162
:101830004DF2071002F048F900214DF2081002F0B5
:1018400043F95C214DF2091002F03EF900214DF2FE
:101850000A1002F039F981214DF20B1002F034F92F
:1018600000214DF20C1002F02FF9A6214DF20D10BF
:1018700002F02AF900214DF20E1002F025F9E521BF
:101880004DF20F1002F020F901214DF2101002F07C
:101890001BF913214DF2111002F016F901214DF23E
:1018A000121002F011F954214DF2131002F00CF94C
:1018B00001214DF2141002F007F982214DF21510AA
:1018C00002F002F901214DF2161002F0FDF8CA21D2
:1018D0004DF2171002F0F8F802214DF2181002F044
:1018E000F3F800214DF2191002F0EEF802214DF24A
:1018F0001A1002F0E9F801214DF21B1002F0E4F891
:1019000002214DF21C1002F0DFF834214DF21D10BF
:1019100002F0DAF802214DF21E1002F0D5F867212C
:101920004DF21F1002F0D0F802214DF2201002F00B
:10193000CBF884214DF2211002F0C6F802214DF2BD
:10194000221002F0C1F8A4214DF2231002F0BCF8DD
:1019500002214DF2241002F0B7F8B7214DF2251004
:1019600002F0B2F802214DF2261002F0ADF8CF21BC
:101970004DF2271002F0A8F802214DF2281002F0D3
:10198000A3F8DE214DF2291002F09EF802214DF25B
:101990002A1002F099F8F2214DF22B1002F094F87F
:1019A00002214DF22C1002F08FF8FE214DF22D1085
:1019B00002F08AF803214DF22E1002F085F8102172
:1019C0004DF22F1002F080F803214DF2301002F09A
:1019D0007BF833214DF2311002F076F803214DF2FD
:1019E000321002F071F86D214DF2331002F06CF8F4
:1019F00000214FF4524002F067F833214DF20120EC
:101A000002F062F800214DF2022002F05DF834216C
:101A10004DF2032002F058F800214DF2042002F0AC
:101A200053F83A214DF2052002F04EF800214DF214
:101A3000062002F049F84A214DF2072002F044F84E
:101A400000214DF2082002F03FF85C214DF2092000
:101A500002F03AF800214DF20A2002F035F8812117
:101A60004DF20B2002F030F800214DF20C2002F074
:101A70002BF8A6214DF20D2002F026F800214DF2A0
:101A80000E2002F021F8E5214DF20F2002F01CF8A3
:101A900001214DF2102002F017F813214DF2112010
:101AA00002F012F801214DF2122002F00DF854213B
:101AB0004DF2132002F008F801214DF2142002F03B
:101AC00003F882214DF2152001F0FEFF01214DF2B5
:101AD000162001F0F9FFCA214DF2172001F0F4FFA2
:101AE00002214DF2182001F0EFFF00214DF21920E4
:101AF00001F0EAFF02214DF21A2001F0E5FF012179
:101B00004DF21B2001F0E0FF02214DF21C2001F0FC
:101B1000DBFF34214DF21D2001F0D6FF02214DF2F2
:101B20001E2001F0D1FF67214DF21F2001F0CCFFF4
:101B300002214DF2202001F0C7FF84214DF2212027
:101B400001F0C2FF02214DF2222001F0BDFFA421CD
:101B50004DF2232001F0B8FF02214DF2242001F0C4
:101B6000B3FFB7214DF2252001F0AEFF02214DF267
:101B7000262001F0A9FFCF214DF2272001F0A4FF7C
:101B800002214DF2282001F09FFFDE214DF2292095
:101B900001F09AFF02214DF22A2001F095FFF22177
:101BA0004DF22B2001F090FF02214DF22C2001F08C
:101BB0008BFFFE214DF22D2001F086FF03214DF217
:101BC0002E2001F081FF10214DF22F2001F07CFF2B
:101BD00003214DF2302001F077FF33214DF2312007
:101BE00001F072FF03214DF2322001F06DFF6D21F3
:101BF0004DF2332001F068FF00214FF4534001F013
:101C000063FF33214DF2013001F05EFF00214DF200
:101C1000023001F059FF34214DF2033001F054FF3E
:101C200000214DF2043001F04FFF3A214DF2053012
:101C300001F04AFF00214DF2063001F045FF4A2134
:101C40004DF2073001F040FF00214DF2083001F065
:101C50003BFF5C214DF2093001F036FF00214DF2CF
:101C60000A3001F031FF81214DF20B3001F02CFFE1
:101C700000214DF20C3001F027FFA6214DF20D306E
:101C800001F022FF00214DF20E3001F01DFFE52191
:101C90004DF20F3001F018FF01214DF2103001F02C
:101CA00013FF13214DF2113001F00EFF01214DF20F
:101CB000123001F009FF54214DF2133001F004FFFE
:101CC00001214DF2143001F0FFFE82214DF215305A
:101CD00001F0FAFE01214DF2163001F0F5FECA21A5
:101CE0004DF2173001F0F0FE02214DF2183001F0F4
:101CF000EBFE00214DF2193001F0E6FE02214DF21B
:101D00001A3001F0E1FE01214DF21B3001F0DCFE42
:101D100002214DF21C3001F0D7FE34214DF21D306E
:101D200001F0D2FE02214DF21E3001F0CDFE6721FE
:101D30004DF21F3001F0C8FE02214DF2203001F0BB
:101D4000C3FE84214DF2213001F0BEFE02214DF28E
:101D5000223001F0B9FEA4214DF2233001F0B4FE8F
:101D600002214DF2243001F0AFFEB7214DF22530B3
:101D700001F0AAFE02214DF2263001F0A5FECF218E
:101D80004DF2273001F0A0FE02214DF2283001F083
:101D90009BFEDE214DF2293001F096FE02214DF22C
:101DA0002A3001F091FEF2214DF22B3001F08CFE31
:101DB00002214DF22C3001F087FEFE214DF22D3034
:101DC00001F082FE03214DF22E3001F07DFE102144
:101DD0004DF22F3001F078FE03214DF2303001F04A
:101DE00073FE33214DF2313001F06EFE03214DF2CE
:101DF000323001F069FE6D214DF2333001F064FEA6
:101E000000214FF4544001F05FFE332100E080E3F5
:101E10004DF2014001F058FE00214DF2024001F068
:101E200053FE34214DF2034001F04EFE00214DF2ED
:101E3000044001F049FE3A214DF2054001F044FE14
:101E400000214DF2064001F03FFE4A214DF20740CD
:101E500001F03AFE00214DF2084001F035FE5C2110
:101E60004DF2094001F030FE00214DF20A4001F030
:101E70002BFE81214DF20B4001F026FE00214DF298
:101E80000C4001F021FEA6214DF20D4001F01CFE98
:101E900000214DF20E4001F017FEE5214DF20F40FA
:101EA00001F012FE01214DF2104001F00DFE132150
:101EB0004DF2114001F008FE01214DF2124001F0F7
:101EC00003FE54214DF2134001F0FEFD01214DF2BD
:101ED000144001F0F9FD82214DF2154001F0F4FDAE
:101EE00001214DF2164001F0EFFDCA214DF21740DD
:101EF00001F0EAFD02214DF2184001F0E5FD00215C
:101F00004DF2194001F0E0FD02214DF21A4001F0BE
:101F1000DBFD00E0FFE201214DF21B4001F0D4FDAA
:101F200002214DF21C4001F0CFFD34214DF21D4045
:101F300001F0CAFD02214DF21E4001F0C5FD6721EE
:101F40004DF21F4001F0C0FD02214DF2204001F092
:101F5000BBFD84214DF2214001F0B6FD02214DF27E
:101F6000224001F0B1FDA4214DF2234001F0ACFD6F
:101F700002214DF2244001F0A7FDB7214DF225408A
:101F800001F0A2FD02214DF2264001F09DFDCF217E
:101F90004DF2274001F098FD02214DF2284001F05A
:101FA00093FDDE214DF2294001F08EFD02214DF21C
:101FB0002A4001F089FDF2214DF22B4001F084FD11
:101FC00002214DF22C4001F07FFDFE214DF22D400B
:101FD00001F07AFD03214DF22E4001F075FD102134
:101FE0004DF22F4001F070FD03214DF2304001F021
:101FF0006BFD33214DF2314001F066FD03214DF2BE
:10200000324001F061FD6D214DF2334001F05CFD85
:1020100000214FF4554001F057FD33214DF201509E
:1020200001F052FD00214DF2025001F04DFD34212E
:102030004DF2035001F048FD00214DF2045001F033
:1020400043FD3A214DF2055001F03EFD00214DF2D5
:10205000065001F039FD4A214DF2075001F034FDE0
:1020600000214DF2085001F02FFD5C214DF2095086
:1020700001F02AFD00214DF20A5001F025FD8121D9
:102080004DF20B5001F020FD00214DF20C5001F0FB
:102090001BFDA6214DF20D5001F016FD00214DF261
:1020A0000E5001F011FDE5214DF20F5001F00CFD35
:1020B00001214DF2105001F007FD13214DF2115096
:1020C00001F002FD01214DF2125001F0FDFC5421FE
:1020D0004DF2135001F0F8FC01214DF2145001F0C3
:1020E000F3FC82214DF2155001F0EEFC01214DF27E
:1020F000165001F0E9FCCA214DF2175001F0E4FC42
:1021000002214DF2185001F0DFFC00214DF2195070
:1021100001F0DAFC02214DF21A5001F0D5FC012148
:102120004DF21B5001F0D0FC02214DF21C5001F089
:10213000CBFC34214DF21D5001F0C6FC02214DF2C2
:102140001E5001F0C1FC67214DF21F5001F0BCFC94
:1021500002214DF2205001F0B7FC84214DF22150B4
:1021600001F0B2FC02214DF2225001F0ADFCA4219D
:102170004DF2235001F0A8FC02214DF2245001F051
:10218000A3FCB7214DF2255001F09EFC02214DF237
:10219000265001F099FCCF214DF2275001F094FC1C
:1021A00002214DF2285001F08FFCDE214DF2295022
:1021B00001F08AFC02214DF22A5001F085FCF22147
:1021C0004DF22B5001F080FC02214DF22C5001F019
:1021D0007BFCFE214DF22D5001F076FC03214DF2E7
:1021E0002E5001F071FC10214DF22F5001F06CFCCB
:1021F00003214DF2305001F067FC33214DF2315094
:1022000001F062FC03214DF2325001F05DFC6D21C2
:102210004DF2335001F058FC00214FF4564001F0CC
:1022200053FC33214DF2016001F04EFC00214DF2D0
:10223000026001F049FC34214DF2036001F044FCDE
:1022400000214DF2046001F03FFC3A214DF205609F
:1022500001F03AFC00214DF2066001F035FC4A2104
:102260004DF2076001F030FC00214DF2086001F0F2
:102270002BFC5C214DF2096001F026FC00214DF29F
:102280000A6001F021FC81214DF20B6001F01CFC81
:1022900000214DF20C6001F017FCA6214DF20D60FB
:1022A00001F012FC00214DF20E6001F00DFCE52161
:1022B0004DF20F6001F008FC01214DF2106001F0B9
:1022C00003FC13214DF2116001F0FEFB01214DF2E0
:1022D000126001F0F9FB54214DF2136001F0F4FBA0
:1022E00001214DF2146001F0EFFB82214DF21560E7
:1022F00001F0EAFB01214DF2166001F0E5FBCA2175
:102300004DF2176001F0E0FB02214DF2186001F080
:10231000DBFB00214DF2196001F0D6FB02214DF2EA
:102320001A6001F0D1FB01214DF21B6001F0CCFBE2
:1023300002214DF21C6001F0C7FB34214DF21D60FB
:1023400001F0C2FB02214DF21E6001F0BDFB6721CE
:102350004DF21F6001F0B8FB02214DF2206001F048
:10236000B3FB84214DF2216001F0AEFB02214DF25E
:10237000226001F0A9FBA4214DF2236001F0A4FB2F
:1023800002214DF2246001F09FFBB7214DF2256040
:1023900001F09AFB02214DF2266001F095FBCF215E
:1023A0004DF2276001F090FB02214DF2286001F010
:1023B0008BFBDE214DF2296001F086FB02214DF2FC
:1023C0002A6001F081FBF2214DF22B6001F07CFBD1
:1023D00002214DF22C6001F077FBFE214DF22D60C1
:1023E00001F072FB03214DF22E6001F06DFB102114
:1023F0004DF22F6001F068FB03214DF2306001F0D7
:1024000063FB33214DF2316001F05EFB03214DF29D
:10241000326001F059FB6D214DF2336001F054FB45
:102420005521184601F050FBAA21284601F04CFB2B
:102430005221304601F048FB0821384601F044FBA8
:102440000021484601F040FBCC21584601F03CFBFE
:1024500000214BF2011001F037FB0521504601F03D
:1024600033FB70214FF4374001F02EFB70214BF20B
:10247000017001F029FB01214FF4384001F024FBE9
:1024800003214BF6010001F01FFB03214BF6020074
:1024900001F01AFB03214BF6030001F015FB0221AA
:1024A0004FF43C4001F010FB00214BF6014001F0DD
:1024B0000BFB00214BF6024001F006FBD0214FF44C
:1024C000494001F001FB02214CF6011001F0FCFA39
:1024D00050214CF6021001F0F7FA50214CF603108F
:1024E00001F0F2FA50214CF6041001F0EDFA00214F
:1024F0004FF4545001F0E8FA55214FF4685001F0C0
:10250000E3FA4FF488502080782001F0A1FF4FF4C7
:1025100024502080FEE3A0F513414FF4E06940F21F
:10252000022A4FF4274B253924D040F20777C91EE1
:102530007ED04FF4887B08317BD011397AD0A0F55A
:10254000A841083977D0A0F5A8514FF4407B053950
:1025500072D0B1F5204170D0B1F580516ED0A0F5A8
:102560008A4131396BD0091F6AD0A0F5C85163394F
:1025700067D0CFE747F6F001E52001F0A5FA314634
:10258000012001F0A1FA4946022001F09DFA41F232
:102590003001032001F098FA0021042001F094FAA0
:1025A0005146082001F090FA0021092001F08CFA30
:1025B00000210A2001F088FA00210C2001F084FAA1
:1025C00000210D2001F080FA00210F2001F07CFA9B
:1025D0000021102001F078FA0721112001F074FA8F
:1025E0000021122001F070FA0021132001F06CFA92
:1025F0000021072001F068FA41F29061102001F0FB
:1026000063FA40F22721112001F05EFA9D21122089
:1026100001F05AFA4FF4C851132001F055FA252160
:10262000292001F051FA0D212B2001F04DFA09E08B
:1026300077E033E1D8E1AEE24AE3FDE3FDE3FDE319
:10264000FDE3FDE30721302001F03EFA40F20331C3
:10265000312001F039FA0321322001F035FA40F23D
:102660000621352001F030FA0821362001F02CFA3D
:1026700040F20641372001F027FA4FF4417138202B
:1026800001F022FA0721392001F01EFA40F202611E
:102690003C2001F019FA08213D2001F015FA002133
:1026A000502001F011FAEF21512001F00DFA002124
:1026B000522001F009FA40F23F11532001F004FAD0
:1026C0005946602001F000FA0121612001F0FCF977
:1026D00000216A2001F0F8F90021802001F0F4F9CE
:1026E0000021812001F0F0F90021822001F0ECF9B5
:1026F0000021832001F0E8F90021842001F0E4F9B1
:102700000021852001F0E0F91021902001F0DCF992
:102710004FF4C061922001F0D7F940F23311072045
:10272000FDE341F28F01EC2001F0CEF941F23421BA
:10273000EF2001F0C9F93146012001F0C5F9494601
:10274000022001F0C1F941F23001032001F0BCF98F
:102750000021042001F0B8F95146082001F0B4F935
:102760000021092001F0B0F900210A2001F0ACF9A4
:1027700001210C2001F0A8F900210D2001F0A4F99D
:1027800000210F2001F0A0F90021102001F09CF998
:102790000721112001F098F90021122001F094F98D
:1027A0000021132001F090F90121072001F08CF99C
:1027B000322001F033FE41F29041102001F084F903
:1027C00040F22721112001F07FF9322001F026FE8E
:1027D0008A21122001F078F9322001F01FFE4FF417
:1027E000D051132001F070F90621292001F06CF975
:1027F0000D212B2001F068F9322001F00FFE00219D
:10280000202001F061F90021212001F05DF9322042
:1028100001F004FE0021302001F056F940F204617D
:10282000312001F051F940F20531322001F04CF92C
:102830000021352001F048F940F60941362001F029
:1028400043F94FF40171372001F03EF940F20131B4
:10285000382001F039F93946392001F035F90021E5
:102860003C2001F031F940F60A213D2001F02CF91D
:10287000322001F0D3FD0021502001F025F9EF2195
:10288000512001F021F90021522001F01DF940F200
:102890003F11532001F018F9594651E10021084633
:1028A00001F012F93146012001F00EF949460220EB
:1028B00001F00AF941F23001032001F005F900218D
:1028C000042001F001F95146082001F0FDF8002133
:1028D000092001F0F9F800210A2001F0F5F80121A2
:1028E0000C2001F0F1F800210D2001F0EDF800219D
:1028F0000F2001F0E9F8322001F090FD40F20111C3
:10290000072001F0E1F8322001F088FD4FF48651F4
:10291000102001F0D9F80721112001F0D5F85B460D
:102920005946122001F0D0F84FF43061132001F025
:10293000CBF80021292001F0C7F844F210012B2028
:1029400001F0C2F80021502001F0BEF8EF21512023
:1029500001F0BAF80021522001F0B6F840F23F1120
:10296000532001F0B1F84FF41C51602001F0ACF895
:102970000121612001F0A8F800216A2001F0A4F8EB
:102980000021802001F0A0F80021812001F09CF8B6
:102990000021822001F098F80021832001F094F8B2
:1029A0000021842001F090F80021852001F08CF8AE
:1029B0001021902001F088F80021922001F084F885
:1029C0000121932001F080F81946952001F07CF850
:1029D0000021972001F078F80021982001F074F888
:1029E00040F27311072085E341F21401E72001F062
:1029F0006BF83146012001F067F84FF400710220B6
:102A000001F062F841F23801032001F05DF851460F
:102A1000082001F059F80021092001F055F80021A3
:102A20000A2001F051F800210C2001F04DF800219E
:102A30000D2001F049F800210F2001F045F8002198
:102A4000102001F041F80721112001F03DF800218C
:102A5000122001F039F80021132001F035F8C820C8
:102A600001F0DCFC41F29061102001F02DF840F201
:102A70002721112001F028F8322001F0CFFC0C2191
:102A8000122001F021F8322001F0C8FC4FF400615F
:102A9000132001F019F81121292001F015F80B215C
:102AA0002B2001F011F8322001F0B8FC0021202089
:102AB00001F00AF840F23F131946212001F004F812
:102AC0000021302001F000F84FF4837421463120BA
:102AD00000F0FAFF0021322000F0F6FF4FF4017100
:102AE000352000F0F1FF41F20A61362000F0ECFFE2
:102AF0003946372000F0E8FF2146382000F0E4FF97
:102B00003946392000F0E0FF40F202413C2000F05D
:102B1000DBFF40F60F413D2000F0D6FF00215020A2
:102B200000F0D2FFEF21512000F0CEFF0021522013
:102B300000F0CAFF1946532000F0C6FF4FF41C51A5
:102B4000602000F0C1FF0121612000F0BDFF0021E5
:102B50006A2000F0B9FF0021802000F0B5FF0021BD
:102B6000812000F0B1FF0021822000F0ADFF0021A4
:102B7000832000F0A9FF0021842000F0A5FF0021A0
:102B8000852000F0A1FF1021902000F09DFF4FF460
:102B9000C0619220FDE33146012000F095FF4946D7
:102BA000022000F091FF41F23001032000F08CFF81
:102BB0000021042000F088FF40F20721082000F0E7
:102BC00083FF0021092000F07FFF00210A2000F090
:102BD0007BFF00210C2000F077FF00210D2000F08A
:102BE00073FF00210F2000F06FFF142001F016FC8E
:102BF00041F2B061102000F067FF0121112000F0C8
:102C000063FF0121172000F05FFF4FF49C71122039
:102C100000F05AFF4FF40061132000F055FF092126
:102C2000292000F051FF09212A2000F04DFF00214A
:102C3000A42000F049FF0021502000F045FFEF21C3
:102C4000512000F041FF0021522000F03DFF40F2F2
:102C50003F11532000F038FF4FF41C51602000F06A
:102C600033FF0121612000F02FFF00216A2000F0D6
:102C70002BFF0021802000F027FF0021812000F0A1
:102C800023FF0021822000F01FFF0021832000F09D
:102C90001BFF0021842000F017FF0021852000F099
:102CA00013FF1321902000F00FFF0021922000F06D
:102CB0000BFF0321932000F007FF5946952000F0F9
:102CC00003FF40F27311072000F0FEFE322010E1F6
:102CD0000021072000F0F8FE322001F09FFB4FF4A6
:102CE0008E71122000F0F0FE0121A42000F0ECFE15
:102CF0000F21082000F0E8FE08210A2000F0E4FE81
:102D000008210D2000F0E0FE3946302000F0DCFE06
:102D1000072100E06FE3312000F0D6FE40F20361AE
:102D2000322000F0D1FE4C464946332000F0CCFE64
:102D30005146342000F0C8FE0221352000F0C4FEC8
:102D400041F60F71362000F0BFFE3946372000F003
:102D5000BBFE0021382000F0B7FE0021392000F032
:102D6000B3FE39463A2000F0AFFE00213B2000F0D0
:102D7000ABFE07213C2000F0A7FE00213D2000F023
:102D8000A3FE322001F04AFB0121072000F09CFE47
:102D90000121172000F098FE322001F03FFB4FF494
:102DA000BD51102000F090FE40F21721112000F0DC
:102DB0008BFE4FF48F71122000F086FE4FF470618D
:102DC000132000F081FE00212A2000F07DFE0A2160
:102DD000292000F079FE4FF49F71122000F074FE5C
:102DE0000021502000F070FEEF21512000F06CFE19
:102DF0000021522000F068FE40F23F11532000F005
:102E000063FE4FF41C51602000F05EFE0121612042
:102E100000F05AFE00216A2000F056FE00218020BA
:102E200000F052FE0021812000F04EFE00218220A1
:102E300000F04AFE002104E05EE05CE125E2DBE216
:102E400082E3832000F040FE0021842000F03CFE5D
:102E50000021852000F038FE1321902000F034FE80
:102E60005946922000F030FE0521932000F02CFE00
:102E70000021952000F028FE0021972000F024FE7C
:102E80000021982000F020FE3146012000F01CFEB9
:102E90002146022000F018FE41F23801032000F024
:102EA00013FE0021042000F00FFE00210C2000F092
:102EB0000BFE00210F2000F007FE0021202000F073
:102EC00003FE0021212000F0FFFD2121072000F05A
:102ED000FBFD142001F0A2FA6121072000F0F4FDAF
:102EE000142001F09BFA40F27311072000F0ECFD72
:102EF000142001F093FAA1E30021084600F0E4FD5C
:102F00000021084600F0E0FD0021084600F0DCFD4D
:102F10000021084600F0D8FD0121A42000E0E5E0F2
:102F200000F0D2FD142001F079FA4FF41C54214630
:102F3000602000F0C9FD55465146082000F0C4FD50
:102F40004FF40571302000F0BFFD43F215713120C0
:102F500000F0BAFD40F20461322000F0B5FD40F609
:102F60001661332000F0B0FD42F21121342000F050
:102F7000ABFD4FF4A851352000F0A6FD48F20751F3
:102F8000362000F0A1FD41F20741372000F09CFD02
:102F900041F20341382000F097FD2021392000F054
:102FA00093FD1A21902000F08FFD0021102000F0E9
:102FB0008BFD0721112000F087FD0021122000F079
:102FC00083FD0021132000F07FFD142001F026FA7C
:102FD0004FF4E661102000F077FD40F23711112028
:102FE00000F072FD142001F019FA4FF4DC71122088
:102FF00000F06AFD142001F011FA4FF47061132003
:1030000000F062FD80212A2000F05EFD4821292089
:1030100000F05AFD142001F001FA3146012000F0C1
:1030200053FD4946022000F04FFD41F238010320D4
:1030300000F04AFD2946082000F046FD00210A2044
:1030400000F042FD00210C2000F03EFD00210D208B
:1030500000F03AFD30210E2000F036FD0021502016
:1030600000F032FDEF21512000F02EFD0021522012
:1030700000F02AFD40F23F11532000F025FD2146CB
:10308000602000F021FD0121612000F01DFD0021E4
:103090006A2000F019FD1121902000F015FD4FF479
:1030A000C061922000F010FD40F20241932000F038
:1030B0000BFD0221942000F007FD142001F0AEF971
:1030C0000121072000F000FD142001F0A7F9612183
:1030D000072000F0F9FC40F27311072000F0F4FC27
:1030E0000021202000F0F0FC0021212000F0ECFC69
:1030F000222100207DE10021084600F0E5FC0021AE
:10310000084600F0E1FC142001F088F9002108468F
:1031100000F0DAFC0021084600F0D6FC0021084649
:1031200000F0D2FC0021084600F0CEFC0121A420D2
:1031300000F0CAFC142001F071F94FF41C5160201A
:1031400000F0C2FC40F60601082000F0BDFC40F291
:1031500003731946302000F0B7FC0121312000F044
:10316000B3FC0421322000F0AFFC4FF48171332016
:1031700000F0AAFC5C465946342000F0A5FC40F261
:103180000311352000F0A0FC1F21362000F09CFC2C
:103190001946372000F098FC0121382000F094FCFB
:1031A0000421392000F090FC1521902000F08CFCC7
:1031B0004FF48261102000F087FC40F2472111207B
:1031C00000F082FC4FF4DE71122000F07DFC4FF421
:1031D0006061132000F078FC782001F01FF931467F
:1031E000012000F071FC4FF40071022000F06CFC33
:1031F00041F23001032000F067FC08210A2000F0B2
:1032000063FC00210C2000F05FFC20210E2000F068
:103210005BFC00210F2000F057FC0021202000F073
:1032200053FC0021212000F04FFC3D212A2000F01A
:103230004BFC142001F0F2F82D21292000F044FC71
:103240000021502000F040FC4DF2EF01512000F031
:103250003BFC0021522000F037FC40F23F1153208C
:1032600000F032FC0021612000F02EFC00216A20D9
:1032700000F02AFC2146922000F026FC0521932034
:1032800000F022FC3146FFF7ADBB0121002000F029
:103290001BFC0A2001F0C2F841F22861102000F066
:1032A00013FC0E21122000F00FFC40F639211320F0
:1032B00000F00AFC0A2001F0B1F84021112000F0D2
:1032C00003FC5021152000F0FFFB0A2001F0A6F8B6
:1032D0001E21122000F0F8FB0A2001F09FF84FF4A5
:1032E000B151102000F0F0FB42F63921132000F01C
:1032F000EBFB0A2001F092F83146012000F0E4FBDC
:103300005946022000F0E0FB41F23801032000F0B2
:10331000DBFB5146082000F0D7FB08210A2000F013
:10332000D3FB0021302000F0CFFB40F202413120DE
:1033300000F0CAFB4FF48371322000F0C5FB40F26D
:103340000351332000F0C0FB4FF48271342000F0B1
:10335000BBFB40F20131352000F0B6FB3946362088
:1033600000F0B2FB40F20531372000F0ADFB4FF426
:103370000271382000F0A8FB40F60B71392000F0F4
:10338000A3FB0221412000F09FFB4FF41C51602061
:1033900000E0D4E000F098FB0121612000F094FBF4
:1033A0004FF40471902000F08FFB4FF48571922050
:1033B00000F08AFB0421932000F086FB3146A02018
:1033C00000F082FB0121072000F07EFB2121072075
:1033D00000F07AFB2321072000F076FB3321072041
:1033E00000F072FB40F23311072000F06DFB00216A
:1033F000A02000F069FB21E13021152000F064FBE2
:1034000010219A2000F060FB2021112000F05CFBCD
:1034100043F22841102000F057FB0221122000F057
:1034200053FB41F23801132000F04EFB282000F03E
:10343000F5FF1221084600F047FB282000F0EEFFC0
:1034400043F22041102000F03FFB43F238011320EB
:1034500000F03AFB462000F0E1FF0021302000F0B0
:1034600033FB40F20241312000F02EFB40F20731E5
:10347000322000F029FB4FF44171332000F024FB8F
:103480000421342000F020FB40F20141352000F0FF
:103490001BFB3946362000F017FB40F20531372080
:1034A00000F012FB4FF4C2631946382000F00CFB09
:1034B0001946392000F008FB3146012000F004FBDA
:1034C0005946022000F000FB41F23001032000F0D9
:1034D000FBFA40F60801082000F0F6FA08210A205D
:1034E00000F0F2FA4FF41C51602000F0EDFA0121D7
:1034F000612000F0E9FA4FF49F71902000F0E4FAA7
:103500003146922000F0E0FA3146932000F0DCFAD8
:103510004FF44051A02000F0D7FA1021A32000F072
:10352000D3FA0121072000F0CFFA2121072000F073
:10353000CBFA2321072000F0C7FA3321072000F03F
:10354000C3FA40F233119EE6E22020802320288037
:103550000220288004202880642000F079FFE020E9
:103560002080012028800A2000F058FFE0202080E1
:10357000032028800C2000F051FF012020800A2029
:1035800000F04CFFE620208003202880FF202880C8
:103590002880B02020802020288000202880032040
:1035A000288040F21F3028800120288040F2DF1060
:1035B000288000202880B42020800420288040F229
:1035C0001F40288000202880D220288000202880CA
:1035D000288028802880B6202080022028804FF470
:1035E000037028800020288022202880092028803D
:1035F000002028802880F020208003202880292097
:103600002080D020208000202880BE20208005201F
:103610002880FE20288001202880FF20288000208C
:103620002880B82020800F20288001202880BA2000
:10363000208001202880642000F0AAF80020FDF7F7
:1036400067F805490120C1F880014046FDF72AF8D6
:1036500021B0BDE8F08F000000802142034808B58A
:103660000088ADF80000BDF8000008BD0008006C3F
:103670002DE9F0413E4C002635462288824202D98F
:1036800062888A4202D80020BDE8F08100F072F919
:10369000A08849F24138374B41F6631745F21031A3
:1036A00045F21052404508D0A0F5D04CBCF1040CB6
:1036B00003D0884201D0B84202D14FF02E0C06E070
:1036C000904202D14FF4385C01E04FF0220CA3F895
:1036D00000C0A0F51343203B03D10120401EC0B21F
:1036E000FCD2FFF7BBFFA388BB42CDD00120401E18
:1036F000C0B2FCD2FFF7B2FF0746A088404503D016
:10370000884201D090420BD10120401EC0B2FCD2B1
:10371000FFF7A4FF0546F8B24FF6FF7303EA002651
:10372000A088A0F51343253B1AD0A0F58A43353B6A
:1037300016D01B1D14D0A0F53543053B10D0B3F5B2
:1037400080530DD0404503D0884201D0904209D12A
:10375000F80AC002B10A40EA411040EAD52093E7D6
:10376000384691E73846BDE8F041FCF792BF0000CB
:10377000D4020020FE07006C044910B50880052023
:1037800000F066FEBDE81040FFF768BFFE07006C62
:103790000C4A10B5BE211180941C0521218000F037
:1037A000F0FF4FF06632084B00F0FEFF00F0BCFF68
:1037B000208001202080FF20208000202080208089
:1037C00010BD0000FE07006C66660440F0B5674C53
:1037D00000232146A679898846F6040241F663153E
:1037E000012E01D02EB11DE091421BD0A94202D181
:1037F00018E0A94216D1082814D2DFE800F0040628
:10380000080A0C0E101206200CE007200AE0042023
:1038100008E0052006E0012004E0002002E003208B
:1038200000E00220A1F5134C45F2103745F2105686
:10383000BCF1410C07D0914205D0B94203D0B1424E
:1038400001D0A94275D1082812D2DFE800F0110496
:1038500006080A0C0E1080230AE0402308E0C0236B
:1038600006E0202304E0602302E0A02300E0E02340
:10387000B14202D14FF4585000E03620B94205D091
:10388000B14203D0A94201D043F00803914201D1D3
:1038900043F00203194600F017F9A088A8420AD0A5
:1038A00099062188628802D5914202D303E09142B1
:1038B00001D9228061802E498A1CB042608908802B
:1038C00021D100231380431C0B8000231380831C11
:1038D0000B8023885B1E1D0A1580C01C0880D8B28F
:1038E0001080A089088000231380431C0B800023D4
:1038F0001380831C0B8063885B1E1C0A1480C01C11
:103900000880D8B212E00020108010802088401E6D
:10391000030A1380C0B21080A089088000201080A4
:1039200010806088401E010A1180C0B21080F0BD76
:10393000FFE7082812D2DFE800F0040608110A0C9D
:103940000E1030230AE0102308E0202306E038237D
:1039500004E0282302E0182300E00823BDE8F0403B
:10396000032043F4805100F0AFB80000D4020020DF
:10397000FE07006C2DE9F04F4C4E0C4601464FEA15
:10398000102C3046B588DFF828B18289230A408997
:10399000A5F513470BF1020A413F1CD0A5F5A64738
:1039A000103F18D0B64696F806903688A5F5D04751
:1039B000A6EB0108A8F10108043F13D0A5F5C857EC
:1039C000633F23D0A5F5AA477646103F4ED0B9F104
:1039D000010F60D061E05D46ABF800005046AAF8E8
:1039E00000C00BE0B9F1010F01D11FFA88F15D466B
:1039F000ABF800000E0A5046AAF80060C9B2018078
:103A00002A800380E1B20180BDE8F08FB9F1000F98
:103A10001DD0ABF800005046AAF800C0C9B2AAF801
:103A20000010761E310AAAF80010F1B20180ABF83E
:103A300000205046AAF80030E1B2AAF80010BEF803
:103A40000210491E0A0AAAF80020C9B2DBE71FFAD1
:103A500088F1ABF8000000265046AAF80060AAF8EA
:103A600000600E0AAAF80060C9B2DFE7ABF80000F8
:103A7000AAF800C0401CABF80000C8B2AAF80000C9
:103A8000ABF80020AAF80030521CABF80020E0B2DE
:103A9000AAF80000B8E71FFA88F100F015F8B0891D
:103AA0002146BDE8F04F00F00FB80000D40200201E
:103AB000FE07006C02480349008908807047000037
:103AC000D4020020FE07006C024A1080901C018086
:103AD00070470000FE07006C38B50121482000F057
:103AE00045F92024ADF8004010208DF80300032094
:103AF0000B4D8DF8020069462846FCF747FD202152
:103B00002846FCF7C3FDADF80040064C6946204648
:103B1000FCF73CFD20212046FCF7B8FD38BD000035
:103B2000000C014000180140FEE7704770B50F23FC
:103B3000C47801780122F4B1144C2468457804F467
:103B4000E064C4F5E064240AC4F10406E340847828
:103B5000B5401C402C4301F1E021230181F80034E1
:103B6000007800F01F018A404009800000F1E02049
:103B7000C0F8002170BD01F01F008240480980009C
:103B800000F1E020C0F8802170BD00000CED00E0E5
:103B90000249084302490860704700000000FA0526
:103BA0000CED00E02DE9F843002401214FF49E7054
:103BB00000F0DCF84448816941F0010181614FF473
:103BC0000040ADF8000048208DF803000320DFF826
:103BD000FC808DF8020069464046FCF7D7FC1025B2
:103BE0003B4FADF8005004268DF803606946384617
:103BF000FCF7CCFC10213846FCF748FD4020ADF81E
:103C000000008DF80360334E69463046FCF7BEFC79
:103C100040213046FCF73AFD0820ADF800008DF851
:103C2000035069463846FCF7B1FC08213846FCF7DA
:103C30002BFDAE02ADF800608DF80350694640469A
:103C4000FCF7A4FC31464046FCF720FDFF20ADF810
:103C5000000028208DF8030069461F48FCF796FCF9
:103C600001211E48FCF7E4FCFCF700FC00F0D8F84A
:103C70008021122000F00AFA10B10120BDE8F8837B
:103C8000322000F0CBFB122000F05CF90B2000F09A
:103C900059F9732804D10A2000F054F9762801D08C
:103CA0000220EBE70E4D00BF05EB4400417815F80C
:103CB000140000F0EBF9022000F0B0FB641CA4B289
:103CC000552CF1D30020D9E700100240002001401C
:103CD000000C0140001401400010014000023000BF
:103CE000A44900082DE9F041044600EB420086B2E9
:103CF00001EB430085B20F46B5F5447F02D9A5F527
:103D00004475ADB2032000F01DF906F00302214610
:103D100000F0F00062F39F010143032000F0B6F9C8
:103D2000C4F38701192000F0B1F9C6F387011A2006
:103D300000F0ACF9322000F005F9C7F3C7011720F5
:103D400000F0A4F9C5F3C701BDE8F041182000F068
:103D50009DB97047044A0029516901D0014300E030
:103D6000814351617047000000100240044A00295D
:103D7000916901D0014300E08143916170470000E7
:103D80000010024030B51F494A6812F00C031E4A69
:103D900003D0042B01D0082B21D002604A680F23E6
:103DA0001A4C03EA1212A35C0268DA4042604B68C4
:103DB000072505EA1323E35C22FA03F383604B68CB
:103DC00005EAD323E35CDA40C2604968032303EACF
:103DD0009131231F595CB2FBF1F1016130BD4A689A
:103DE0004B6802F470124FF0020413F4803F04EBAE
:103DF000924202D04B689B0301D5054B00E0024B79
:103E00005A43CAE70010024000127A004400002022
:103E100000093D000149C8717047000000100240D0
:103E200038B501214FF49070FFF7A0FF4FF4005513
:103E3000ADF8005048208DF803000320114C8DF898
:103E4000020069462046FCF7A1FB29462046FCF704
:103E50001DFC0820ADF8000010200B4D8DF803006C
:103E600069462846FCF792FB08212846FCF70EFC21
:103E7000606820F470006060606840F4401060602A
:103E800038BD0000002001400014014070B5322010
:103E900000F0DEFA0C4C0120C4F8B4010B4DC5F85B
:103EA0008C01322004F5DA7405F5C67500F0D0FAFD
:103EB00000262E60322000F0CBFA2660BDE870406C
:103EC000322000F0C5BA00000000244200802242E7
:103ED0002DE9F047184C0025606820F47000606000
:103EE000606840F400006060DFF85090144F0826CE
:103EF0004FF00108AA46322000F0AAFAC7F88C81D8
:103F00006806050ED9F8340108B16D1CEDB23220F7
:103F100000F09EFAC7F88CA1761E16F0FF06EAD1D3
:103F2000606820F470006060606840F44010606079
:103F30002846BDE8F0870000002001400000244230
:103F40000080224210B5044600F022F8422000F022
:103F500055F8642000F07CFA204600F04FF8642009
:103F600000F076FA00F02EF8642000F071FA00F00C
:103F70000FF8432000F042F8642000F069FAFFF7E0
:103F8000A7FF0446FFF782FF00F01CF8204610BD93
:103F900070B50A4C0120C4F8B401094DC5F88C0174
:103FA000322004F5DA7405F5C67500F051FA0026E2
:103FB0002660322000F04CFA2E6070BD00002442D2
:103FC0000080224270B50B4C0020C4F8B4013220AE
:103FD00004F5DA7400F03CFA07480125C0F88C516A
:103FE000322000F035FA2560BDE87040322000F044
:103FF0002FBA000000002442008022422DE9F04741
:104000000025DFF87C901F4C07462E464FF0010834
:10401000380602D5C9F8B48101E0C9F8B461780660
:10402000070E322000F014FAC4F88C81322000F020
:104030000FFAC4F88C616D1CEDB2082DE8D3124D57
:10404000686820F470006860686840F40000686088
:10405000322000F0FDF9C4F88C81322000F0F8F92C
:10406000D9F8340100B10120C4F88C61696821F4E9
:1040700070016960696841F440116960BDE8F087CA
:1040800000002442008022420020014070B50D460D
:1040900006460024FFF77CFF4220FFF7AFFF00B188
:1040A0000124642000F0D4F93046FFF7A7FF00B1E7
:1040B0000124642000F0CCF92846FFF79FFF00B1EF
:1040C0000124FFF77FFF204670BD7047AA2000F053
:1040D0006FB9BB2000F06CB970B50D4606460024E0
:1040E00004E0305D00F064F9641CE4B2AC42F8D343
:1040F00070BD00000CB500212648019100910268B6
:1041000042F4803202604FF4A063026802F400328D
:104110000092019A521C0192009A12B9019A9A4295
:10412000F3D10268920333D5012100911A490A683C
:1041300042F010020A600A6822F003020A600A686C
:1041400042F002020A604168416041684160416892
:1041500041F480614160416821F47C114160416813
:1041600041F4E8114160016841F08071016001682B
:104170008901FCD5416821F003014160416841F0AB
:10418000020141604168C1F381010229FAD10CBDED
:1041900000910CBD00100240002002404FF0E021D1
:1041A0000428086903D020F004000861704740F03B
:1041B0000400FAE7704700000F4810B5016841F0AD
:1041C0000101016041680D4A1140416001680C4ADB
:1041D00011400160016821F480210160416821F4EF
:1041E000FE0141604FF41F018160FFF783FF054925
:1041F0004FF00060086010BD001002400000FFF8A2
:10420000FFFFF6FE08ED00E070B5154C40F22551B9
:10421000204600F03CF800280ED0204600F0C4F8FC
:10422000C2B2104801880B0406D44C044FF00003BE
:1042300006D50A2A01D0038070BD41F400410DE08B
:104240000D2A09D0C1F30D04074D491C89B22A5526
:104250000180C729EFD870BD41F48041018070BD55
:10426000003801403800002000AD0020002981897D
:1042700002D041F4005101E021F4005181817047E6
:104280000246002012880A4200D00120704730B553
:1042900001F01F0201240025C1F3421304FA02F2C7
:1042A000012B0FD0022B0FD0838A4FEA11210088F7
:1042B000134204FA01F400EA040001D000B1012520
:1042C000284630BD8389F0E7038AEEE710B5C1F3D5
:1042D000421301F01F040121A140012B07D0022B42
:1042E00007D01430002A026805D00A4304E00C30DD
:1042F000F8E71030F6E78A43026010BD30B5044697
:10430000008A85B00D464CF6FF710840E9880143EC
:104310002182A1894EF6F3100140A8882A89104312
:104320006A890A431043A081A08A4FF6FF410840E2
:10433000A9890143A1826846FFF724FD19488442F8
:1043400001D1039800E00298A189090400EBC001A3
:1043500001EB0010296801D5490000E08900B0FB9D
:10436000F1F06422B0FBF2F109010B096FF01805BE
:104370006B4300EB8300A3891D044FF0320306D585
:1043800003EBC000B0FBF2F000F0070005E003EB28
:104390000010B0FBF2F000F00F000843208105B0E0
:1043A00030BD0000003801408088C0F3080070472D
:1043B00070B5074C054680212046FFF761FF0028B5
:1043C000F9D029462046BDE8704000F003B800004F
:1043D00000380140C1F3080181807047FEE7704753
:1043E00010B56FF00400FFF7D9FE094809490068CD
:1043F000B0FBF1F0C1B2084801EB41020170C2EB21
:10440000C1114FF6FF7202EAC101418010BD0000E8
:104410000000002000127A00340000200B49498877
:1044200048434FF0E021486100228A61086940F06A
:10443000010008610869C30701D0C003FAD5086903
:1044400020F0010008618A617047000034000020FC
:104450000B49097848434FF0E021486100228A6106
:10446000086940F0010008610869C30701D0C00372
:10447000FAD5086920F0010008618A6170470000E0
:104480003400002004490A885206FCD5024AC1B211
:10449000121D118070470000003801401CB5FFF765
:1044A0009FFF4FF4A060FFF773FB4FF4E13000F083
:1044B000EBF8FFF711FBFCF7C5F9002000F0A2F8BC
:1044C00049494FF4784008800420FFF77FF900BF86
:1044D000FFF768FB0028FBD140F2DC50FFF79EFF9E
:1044E0004FF4A0752B46F022AE210A20FFF7FAFB0D
:1044F0000020FCF7D7F8DFF8F4B03D4CDFF8F4A06B
:104500004FF47A70FFF78AFF00210846FFF732FA6E
:10451000FFF7D0FA384800BFD0F83C110029FBD093
:10452000D0F83C110129FBD0344B0022D3F81801FC
:104530000028FBD0DFF8C89000214FF6FF7C5F46D3
:10454000504600BFD4F81061002EFBD0BE68F6B212
:1045500020F81160D4F81081B8F1010FFAD00CEAFC
:10456000062620F8116000BFD4F81081B8F1000FC2
:10457000FAD0D7F8088008F0FF0846EA080620F8C5
:10458000116000BFD4F81081B8F1010FFAD0A9F87A
:104590000060491C89B2A942D4D3521C92B2F02ABD
:1045A000C4D3FFF793FD00260A20FFF737FF00274B
:1045B00031463846FFF75CF8010A8DF800108DF897
:1045C000040001216846FFF787FD012101A8FFF7DC
:1045D00083FD7F1CBFB2AF42EAD3761CB6B2F02E89
:1045E000E2D3FFF776FD8BE71400002000100140B6
:1045F000008021425400002000002442008022421A
:104600000008006C70B504460B480C4E002150F8B1
:10461000240006EB84054200286900F02DF80648C6
:104620000021103050F82420A86800F025F801205F
:104630003119087670BD0000FC4A000818000020FF
:1046400010B50B4B0B4C002253F82030114604EBF5
:10465000800005E0046934F8114004B1521C491C83
:104660008B42F7D864204243B2FBF3F0C0B210BDD6
:10467000FC4A00081800002002E000BF00F8011BFF
:10468000521EFBD27047000070B5054686B001216E
:1046900044F20400FFF76AFB4FF40070ADF810001D
:1046A00003248DF8124018201D4E8DF8130004A924
:1046B0003046FBF76BFF3015ADF8100004208DF885
:1046C000130004A93046FBF761FF25208DF8140084
:1046D0008DF815408DF8164001208DF8170005A8BB
:1046E000FFF724FA0020ADF80400ADF80600ADF89D
:1046F0000800ADF80C000C200A4CADF80A0000953B
:1047000069462046FFF7FAFD012240F22551204676
:10471000FFF7DCFD01212046FFF7A8FD06B070BDC4
:1047200000080140003801404FEA1153A3F58063AF
:10473000D3F11E03A8BFD3F1200C08DB4FF00042D9
:1047400042EAC12252EA505232FA03F0704709425B
:104750000BD4102BC4BF0020704703F5787CBCF14C
:10476000FF3F05D04FF0FF3070474FF0000070471B
:1047700070B500F0C3F800BF499224800020704754
:10478000F0E7B0FA80F310FA03F10AD0C3F11D0389
:1047900003F580634FEA41504FEA035202EBD12107
:1047A00070474FF000007047DFF848C170B51CEA51
:1047B000111E1EBF1CEA13159EEA0C0F95EA0C0F82
:1047C00000F06F8081EA030423EA4C134EEAD47EA2
:1047D00021EA4C1141F4801143F48013AE44A1FB53
:1047E000024CA0FB0365AEF17F7E361955EB0C053C
:1047F000A1FB034C4CF10003A0FB021C16EB0C06C2
:10480000654153F10003094218BF46F0010613F455
:10481000007F0BD14FEA03314FEA0530340341EA00
:10482000155140EA16506FF003020AE04FEAC32127
:104830004FEAC520F40241EA555140EA56506FF064
:10484000020202EB2E4201EB025585EACE710AD03C
:104850005FEA440C18BF24F0004450F1000041F11D
:10486000000120EAD47040F2FE7C624500D270BDA7
:10487000A84214BF4FF080444FF04044002E08BFC0
:104880000024BEF1806FA8BFA1F1C041BDE8704017
:1048900080F282804FF0000001F1C04101F0004140
:1048A00070479EEA0C0F0CEA131518BF95EA0C0F1F
:1048B00006D04FF0000081EA030E0EF0004170BDFB
:1048C00000F01CF88900013E00F007B800F009B8BC
:1048D0004FEA430C5FEA5C5C08D081EA030100F018
:1048E0005BB84FEA410C5FEA5C5CF6D14FF0000028
:1048F000014970470000FF070000F87F0EF1020E2B
:104900002EF0030E5EF8046B364205D4012A43EB09
:10491000030515F5001F12D8012841EB010C1CF509
:10492000001F0CD80ED14FEAD17C15F5001F0CEBFF
:104930004C0C0CF1020C08BF4CEBD37C04E04FF0A4
:10494000080C01E04FEAD37C0CEB4C0526FA05F687
:1049500006F00706B6F1040C06D20EEB860CBDE895
:1049600070404CF0010C6047DFE80CF0090B0202CC
:104970004FF000414FF00000A1F5002170BD194635
:104980001046012851EB010418BFD4F5001484BF70
:10499000002001F0004170BD0808A0F500114FEAA9
:1049A000310170473A04401012143280171618046F
:1049B00019021A7A030A0C0C15003E0070007101EE
:1049C00072117309A20211047A207B1C7C287D3CA1
:1049D0007E557F68807681808288838F849685A3C8
:1049E00086AF87C488D789E813E0000010000D0067
:1049F0001420A505AB072475256326A59F78A0681C
:104A0000A103A6DFA7DFA8F0A990AA9413E50E6181
:104A10000F4B16021E17210222912907330B350B6B
:104A2000371D3871392A3C784D404E20695D6B4006
:104A300074198D4F8E008F009000910092009600A7
:104A40009A80B084B10CB20EB382B80A431444F019
:104A5000453446584728483A59885A885B445C6729
:104A60005D495E0E640465206605940495086C0A31
:104A70006D554F80508051005222535E548009037F
:104A80006E116F9F550056405780000000000000D7
:104A90000000000000000000000000000000000016
:104AA0000000000000000000000000000000000006
:104AB00000000000000000000000000000000000F6
:104AC00000000000000000000000000000000000E6
:104AD00000000000000000000000000000000000D6
:104AE00000000000000000000000000000000000C6
:104AF00000000000000000000000000000050000B1
:104B000001000000200000002000000000A00000C4
:104B100020000000303132333435363738394142E5
:104B2000434445464030580030313233343536370F
:104B30003839616263646566403078005C4B000818
:104B400000000020540000006C010008B04B000879
:104B500054000020D4B300008801000800A24A04D9
:104B6000000000000000000001020304060708091D
:104B70000000FFFF05460008414600080003002032
:104B80000000006800A30020200000680000000072
:104B90000000000000000000000000000204060801
:104BA00000000000010203040102030406070809D3
:0400000508000131BD
:00000001FF
